{
  "_format": "hh-sol-artifact-1",
  "contractName": "ShadowRaiNFT",
  "sourceName": "contracts/ShadowRaiNFT.sol",
  "abi": [
    {
      "inputs": [
        {
          "internalType": "string",
          "name": "_tokenName",
          "type": "string"
        },
        {
          "internalType": "string",
          "name": "_tokenSymbol",
          "type": "string"
        },
        {
          "internalType": "uint256",
          "name": "_cost",
          "type": "uint256"
        },
        {
          "internalType": "uint256",
          "name": "_maxSupply",
          "type": "uint256"
        },
        {
          "internalType": "uint256",
          "name": "_maxMintAmountPerTx",
          "type": "uint256"
        },
        {
          "internalType": "string",
          "name": "_hiddenMetadataUri",
          "type": "string"
        }
      ],
      "stateMutability": "nonpayable",
      "type": "constructor"
    },
    {
      "inputs": [],
      "name": "ApprovalCallerNotOwnerNorApproved",
      "type": "error"
    },
    {
      "inputs": [],
      "name": "ApprovalQueryForNonexistentToken",
      "type": "error"
    },
    {
      "inputs": [],
      "name": "ApprovalToCurrentOwner",
      "type": "error"
    },
    {
      "inputs": [],
      "name": "ApproveToCaller",
      "type": "error"
    },
    {
      "inputs": [],
      "name": "BalanceQueryForZeroAddress",
      "type": "error"
    },
    {
      "inputs": [],
      "name": "MintToZeroAddress",
      "type": "error"
    },
    {
      "inputs": [],
      "name": "MintZeroQuantity",
      "type": "error"
    },
    {
      "inputs": [],
      "name": "OwnerQueryForNonexistentToken",
      "type": "error"
    },
    {
      "inputs": [],
      "name": "TransferCallerNotOwnerNorApproved",
      "type": "error"
    },
    {
      "inputs": [],
      "name": "TransferFromIncorrectOwner",
      "type": "error"
    },
    {
      "inputs": [],
      "name": "TransferToNonERC721ReceiverImplementer",
      "type": "error"
    },
    {
      "inputs": [],
      "name": "TransferToZeroAddress",
      "type": "error"
    },
    {
      "anonymous": false,
      "inputs": [
        {
          "indexed": true,
          "internalType": "address",
          "name": "owner",
          "type": "address"
        },
        {
          "indexed": true,
          "internalType": "address",
          "name": "approved",
          "type": "address"
        },
        {
          "indexed": true,
          "internalType": "uint256",
          "name": "tokenId",
          "type": "uint256"
        }
      ],
      "name": "Approval",
      "type": "event"
    },
    {
      "anonymous": false,
      "inputs": [
        {
          "indexed": true,
          "internalType": "address",
          "name": "owner",
          "type": "address"
        },
        {
          "indexed": true,
          "internalType": "address",
          "name": "operator",
          "type": "address"
        },
        {
          "indexed": false,
          "internalType": "bool",
          "name": "approved",
          "type": "bool"
        }
      ],
      "name": "ApprovalForAll",
      "type": "event"
    },
    {
      "anonymous": false,
      "inputs": [
        {
          "indexed": true,
          "internalType": "address",
          "name": "previousOwner",
          "type": "address"
        },
        {
          "indexed": true,
          "internalType": "address",
          "name": "newOwner",
          "type": "address"
        }
      ],
      "name": "OwnershipTransferred",
      "type": "event"
    },
    {
      "anonymous": false,
      "inputs": [
        {
          "indexed": true,
          "internalType": "address",
          "name": "from",
          "type": "address"
        },
        {
          "indexed": true,
          "internalType": "address",
          "name": "to",
          "type": "address"
        },
        {
          "indexed": true,
          "internalType": "uint256",
          "name": "tokenId",
          "type": "uint256"
        }
      ],
      "name": "Transfer",
      "type": "event"
    },
    {
      "inputs": [
        {
          "internalType": "address",
          "name": "to",
          "type": "address"
        },
        {
          "internalType": "uint256",
          "name": "tokenId",
          "type": "uint256"
        }
      ],
      "name": "approve",
      "outputs": [],
      "stateMutability": "nonpayable",
      "type": "function"
    },
    {
      "inputs": [
        {
          "internalType": "address",
          "name": "owner",
          "type": "address"
        }
      ],
      "name": "balanceOf",
      "outputs": [
        {
          "internalType": "uint256",
          "name": "",
          "type": "uint256"
        }
      ],
      "stateMutability": "view",
      "type": "function"
    },
    {
      "inputs": [],
      "name": "cost",
      "outputs": [
        {
          "internalType": "uint256",
          "name": "",
          "type": "uint256"
        }
      ],
      "stateMutability": "view",
      "type": "function"
    },
    {
      "inputs": [
        {
          "internalType": "uint256",
          "name": "tokenId",
          "type": "uint256"
        }
      ],
      "name": "getApproved",
      "outputs": [
        {
          "internalType": "address",
          "name": "",
          "type": "address"
        }
      ],
      "stateMutability": "view",
      "type": "function"
    },
    {
      "inputs": [],
      "name": "hiddenMetadataUri",
      "outputs": [
        {
          "internalType": "string",
          "name": "",
          "type": "string"
        }
      ],
      "stateMutability": "view",
      "type": "function"
    },
    {
      "inputs": [
        {
          "internalType": "address",
          "name": "owner",
          "type": "address"
        },
        {
          "internalType": "address",
          "name": "operator",
          "type": "address"
        }
      ],
      "name": "isApprovedForAll",
      "outputs": [
        {
          "internalType": "bool",
          "name": "",
          "type": "bool"
        }
      ],
      "stateMutability": "view",
      "type": "function"
    },
    {
      "inputs": [],
      "name": "maxMintAmountPerTx",
      "outputs": [
        {
          "internalType": "uint256",
          "name": "",
          "type": "uint256"
        }
      ],
      "stateMutability": "view",
      "type": "function"
    },
    {
      "inputs": [],
      "name": "maxSupply",
      "outputs": [
        {
          "internalType": "uint256",
          "name": "",
          "type": "uint256"
        }
      ],
      "stateMutability": "view",
      "type": "function"
    },
    {
      "inputs": [],
      "name": "merkleRoot1",
      "outputs": [
        {
          "internalType": "bytes32",
          "name": "",
          "type": "bytes32"
        }
      ],
      "stateMutability": "view",
      "type": "function"
    },
    {
      "inputs": [],
      "name": "merkleRoot2",
      "outputs": [
        {
          "internalType": "bytes32",
          "name": "",
          "type": "bytes32"
        }
      ],
      "stateMutability": "view",
      "type": "function"
    },
    {
      "inputs": [
        {
          "internalType": "uint256",
          "name": "_mintAmount",
          "type": "uint256"
        }
      ],
      "name": "mint",
      "outputs": [],
      "stateMutability": "payable",
      "type": "function"
    },
    {
      "inputs": [
        {
          "internalType": "uint256",
          "name": "_mintAmount",
          "type": "uint256"
        },
        {
          "internalType": "address",
          "name": "_receiver",
          "type": "address"
        }
      ],
      "name": "mintForAddress",
      "outputs": [],
      "stateMutability": "nonpayable",
      "type": "function"
    },
    {
      "inputs": [],
      "name": "name",
      "outputs": [
        {
          "internalType": "string",
          "name": "",
          "type": "string"
        }
      ],
      "stateMutability": "view",
      "type": "function"
    },
    {
      "inputs": [],
      "name": "openToAll",
      "outputs": [
        {
          "internalType": "uint256",
          "name": "",
          "type": "uint256"
        }
      ],
      "stateMutability": "view",
      "type": "function"
    },
    {
      "inputs": [],
      "name": "owner",
      "outputs": [
        {
          "internalType": "address",
          "name": "",
          "type": "address"
        }
      ],
      "stateMutability": "view",
      "type": "function"
    },
    {
      "inputs": [
        {
          "internalType": "uint256",
          "name": "tokenId",
          "type": "uint256"
        }
      ],
      "name": "ownerOf",
      "outputs": [
        {
          "internalType": "address",
          "name": "",
          "type": "address"
        }
      ],
      "stateMutability": "view",
      "type": "function"
    },
    {
      "inputs": [],
      "name": "paused",
      "outputs": [
        {
          "internalType": "bool",
          "name": "",
          "type": "bool"
        }
      ],
      "stateMutability": "view",
      "type": "function"
    },
    {
      "inputs": [],
      "name": "renounceOwnership",
      "outputs": [],
      "stateMutability": "nonpayable",
      "type": "function"
    },
    {
      "inputs": [],
      "name": "revealed",
      "outputs": [
        {
          "internalType": "bool",
          "name": "",
          "type": "bool"
        }
      ],
      "stateMutability": "view",
      "type": "function"
    },
    {
      "inputs": [
        {
          "internalType": "address",
          "name": "from",
          "type": "address"
        },
        {
          "internalType": "address",
          "name": "to",
          "type": "address"
        },
        {
          "internalType": "uint256",
          "name": "tokenId",
          "type": "uint256"
        }
      ],
      "name": "safeTransferFrom",
      "outputs": [],
      "stateMutability": "nonpayable",
      "type": "function"
    },
    {
      "inputs": [
        {
          "internalType": "address",
          "name": "from",
          "type": "address"
        },
        {
          "internalType": "address",
          "name": "to",
          "type": "address"
        },
        {
          "internalType": "uint256",
          "name": "tokenId",
          "type": "uint256"
        },
        {
          "internalType": "bytes",
          "name": "_data",
          "type": "bytes"
        }
      ],
      "name": "safeTransferFrom",
      "outputs": [],
      "stateMutability": "nonpayable",
      "type": "function"
    },
    {
      "inputs": [],
      "name": "secondWave",
      "outputs": [
        {
          "internalType": "uint256",
          "name": "",
          "type": "uint256"
        }
      ],
      "stateMutability": "view",
      "type": "function"
    },
    {
      "inputs": [
        {
          "internalType": "address",
          "name": "operator",
          "type": "address"
        },
        {
          "internalType": "bool",
          "name": "approved",
          "type": "bool"
        }
      ],
      "name": "setApprovalForAll",
      "outputs": [],
      "stateMutability": "nonpayable",
      "type": "function"
    },
    {
      "inputs": [
        {
          "internalType": "uint256",
          "name": "_cost",
          "type": "uint256"
        }
      ],
      "name": "setCost",
      "outputs": [],
      "stateMutability": "nonpayable",
      "type": "function"
    },
    {
      "inputs": [
        {
          "internalType": "string",
          "name": "_hiddenMetadataUri",
          "type": "string"
        }
      ],
      "name": "setHiddenMetadataUri",
      "outputs": [],
      "stateMutability": "nonpayable",
      "type": "function"
    },
    {
      "inputs": [
        {
          "internalType": "uint256",
          "name": "_maxMintAmountPerTx",
          "type": "uint256"
        }
      ],
      "name": "setMaxMintAmountPerTx",
      "outputs": [],
      "stateMutability": "nonpayable",
      "type": "function"
    },
    {
      "inputs": [
        {
          "internalType": "bytes32",
          "name": "_merkleRoot1",
          "type": "bytes32"
        },
        {
          "internalType": "bytes32",
          "name": "_merkleRoot2",
          "type": "bytes32"
        }
      ],
      "name": "setMerkleRoot",
      "outputs": [],
      "stateMutability": "nonpayable",
      "type": "function"
    },
    {
      "inputs": [
        {
          "internalType": "bool",
          "name": "_state",
          "type": "bool"
        }
      ],
      "name": "setPaused",
      "outputs": [],
      "stateMutability": "nonpayable",
      "type": "function"
    },
    {
      "inputs": [
        {
          "internalType": "bool",
          "name": "_state",
          "type": "bool"
        }
      ],
      "name": "setRevealed",
      "outputs": [],
      "stateMutability": "nonpayable",
      "type": "function"
    },
    {
      "inputs": [
        {
          "internalType": "string",
          "name": "_uriPrefix",
          "type": "string"
        }
      ],
      "name": "setUriPrefix",
      "outputs": [],
      "stateMutability": "nonpayable",
      "type": "function"
    },
    {
      "inputs": [
        {
          "internalType": "string",
          "name": "_uriSuffix",
          "type": "string"
        }
      ],
      "name": "setUriSuffix",
      "outputs": [],
      "stateMutability": "nonpayable",
      "type": "function"
    },
    {
      "inputs": [
        {
          "internalType": "bool",
          "name": "_state",
          "type": "bool"
        }
      ],
      "name": "setWhitelistMintEnabled",
      "outputs": [],
      "stateMutability": "nonpayable",
      "type": "function"
    },
    {
      "inputs": [
        {
          "internalType": "bytes4",
          "name": "interfaceId",
          "type": "bytes4"
        }
      ],
      "name": "supportsInterface",
      "outputs": [
        {
          "internalType": "bool",
          "name": "",
          "type": "bool"
        }
      ],
      "stateMutability": "view",
      "type": "function"
    },
    {
      "inputs": [],
      "name": "symbol",
      "outputs": [
        {
          "internalType": "string",
          "name": "",
          "type": "string"
        }
      ],
      "stateMutability": "view",
      "type": "function"
    },
    {
      "inputs": [
        {
          "internalType": "uint256",
          "name": "_tokenId",
          "type": "uint256"
        }
      ],
      "name": "tokenURI",
      "outputs": [
        {
          "internalType": "string",
          "name": "",
          "type": "string"
        }
      ],
      "stateMutability": "view",
      "type": "function"
    },
    {
      "inputs": [],
      "name": "totalSupply",
      "outputs": [
        {
          "internalType": "uint256",
          "name": "",
          "type": "uint256"
        }
      ],
      "stateMutability": "view",
      "type": "function"
    },
    {
      "inputs": [
        {
          "internalType": "address",
          "name": "from",
          "type": "address"
        },
        {
          "internalType": "address",
          "name": "to",
          "type": "address"
        },
        {
          "internalType": "uint256",
          "name": "tokenId",
          "type": "uint256"
        }
      ],
      "name": "transferFrom",
      "outputs": [],
      "stateMutability": "nonpayable",
      "type": "function"
    },
    {
      "inputs": [
        {
          "internalType": "address",
          "name": "newOwner",
          "type": "address"
        }
      ],
      "name": "transferOwnership",
      "outputs": [],
      "stateMutability": "nonpayable",
      "type": "function"
    },
    {
      "inputs": [
        {
          "internalType": "address",
          "name": "newOwner",
          "type": "address"
        }
      ],
      "name": "transferToNewOwnership",
      "outputs": [],
      "stateMutability": "nonpayable",
      "type": "function"
    },
    {
      "inputs": [],
      "name": "uriPrefix",
      "outputs": [
        {
          "internalType": "string",
          "name": "",
          "type": "string"
        }
      ],
      "stateMutability": "view",
      "type": "function"
    },
    {
      "inputs": [],
      "name": "uriSuffix",
      "outputs": [
        {
          "internalType": "string",
          "name": "",
          "type": "string"
        }
      ],
      "stateMutability": "view",
      "type": "function"
    },
    {
      "inputs": [
        {
          "internalType": "address",
          "name": "_owner",
          "type": "address"
        }
      ],
      "name": "walletOfOwner",
      "outputs": [
        {
          "internalType": "uint256[]",
          "name": "",
          "type": "uint256[]"
        }
      ],
      "stateMutability": "view",
      "type": "function"
    },
    {
      "inputs": [
        {
          "internalType": "address",
          "name": "",
          "type": "address"
        }
      ],
      "name": "whitelistClaimed",
      "outputs": [
        {
          "internalType": "bool",
          "name": "",
          "type": "bool"
        }
      ],
      "stateMutability": "view",
      "type": "function"
    },
    {
      "inputs": [
        {
          "internalType": "uint256",
          "name": "_mintAmount",
          "type": "uint256"
        },
        {
          "internalType": "bytes32[]",
          "name": "_merkleProof",
          "type": "bytes32[]"
        }
      ],
      "name": "whitelistMint",
      "outputs": [],
      "stateMutability": "payable",
      "type": "function"
    },
    {
      "inputs": [],
      "name": "whitelistMintEnabled",
      "outputs": [
        {
          "internalType": "bool",
          "name": "",
          "type": "bool"
        }
      ],
      "stateMutability": "view",
      "type": "function"
    },
    {
      "inputs": [],
      "name": "withdraw",
      "outputs": [],
      "stateMutability": "payable",
      "type": "function"
    }
  ],
  "bytecode": "0x60e06040819052600060c08190526200001b91600d9162000280565b5060408051808201909152600580825264173539b7b760d91b60209092019182526200004a91600e9162000280565b506014805462ffffff191660011790553480156200006757600080fd5b5060405162002e6938038062002e698339810160408190526200008a91620003f3565b855186908690620000a390600290602085019062000280565b508051620000b990600390602084019062000280565b5050600160005550620000cc3362000126565b6001600955620000dc8462000178565b6011839055620000ec82620001cc565b620000f7816200021c565b6200010542611c20620004a0565b6080526200011642614650620004a0565b60a0525062000504945050505050565b600880546001600160a01b038381166001600160a01b0319831681179093556040519116919082907f8be0079c531659141344cd1fd0a4f28419497f9722a3daafe3b4186f6b6457e090600090a35050565b6008546001600160a01b03163314620001c75760405162461bcd60e51b8152602060048201819052602482015260008051602062002e4983398151915260448201526064015b60405180910390fd5b601055565b6008546001600160a01b03163314620002175760405162461bcd60e51b8152602060048201819052602482015260008051602062002e498339815191526044820152606401620001be565b601255565b6008546001600160a01b03163314620002675760405162461bcd60e51b8152602060048201819052602482015260008051602062002e498339815191526044820152606401620001be565b80516200027c90600f90602084019062000280565b5050565b8280546200028e90620004c7565b90600052602060002090601f016020900481019282620002b25760008555620002fd565b82601f10620002cd57805160ff1916838001178555620002fd565b82800160010185558215620002fd579182015b82811115620002fd578251825591602001919060010190620002e0565b506200030b9291506200030f565b5090565b5b808211156200030b576000815560010162000310565b634e487b7160e01b600052604160045260246000fd5b600082601f8301126200034e57600080fd5b81516001600160401b03808211156200036b576200036b62000326565b604051601f8301601f19908116603f0116810190828211818310171562000396576200039662000326565b81604052838152602092508683858801011115620003b357600080fd5b600091505b83821015620003d75785820183015181830184015290820190620003b8565b83821115620003e95760008385830101525b9695505050505050565b60008060008060008060c087890312156200040d57600080fd5b86516001600160401b03808211156200042557600080fd5b620004338a838b016200033c565b975060208901519150808211156200044a57600080fd5b620004588a838b016200033c565b965060408901519550606089015194506080890151935060a08901519150808211156200048457600080fd5b506200049389828a016200033c565b9150509295509295509295565b60008219821115620004c257634e487b7160e01b600052601160045260246000fd5b500190565b600181811c90821680620004dc57607f821691505b60208210811415620004fe57634e487b7160e01b600052602260045260246000fd5b50919050565b60805160a05161291162000538600039600081816107e701526113eb01526000818161049c015261142101526129116000f3fe60806040526004361061027d5760003560e01c806375edcbe01161014f578063b88d4fde116100c1578063e0a808531161007a578063e0a8085314610756578063e64710e614610776578063e985e9c51461078c578063ee88d8f2146107d5578063efbd73f414610809578063f2fde38b1461082957600080fd5b8063b88d4fde146106a7578063c87b56dd146106c7578063ca34adf0146106e7578063d2cab056146106fd578063d5abeb0114610710578063db4bec441461072657600080fd5b806395d89b411161011357806395d89b411461060a578063a0712d681461061f578063a22cb46514610632578063a45ba8e714610652578063b071401b14610667578063b767a0981461068757600080fd5b806375edcbe01461057657806377e85d4a146105965780637ec4a659146105b65780638da5cb5b146105d657806394354fd0146105f457600080fd5b8063438b6300116101f35780635c975abb116101ac5780635c975abb146104d357806362b99ad4146104ed5780636352211e146105025780636caede3d1461052257806370a0823114610541578063715018a61461056157600080fd5b8063438b6300146103fd57806344a0d68a1461042a5780634fdd43cb1461044a578063518302271461046a578063536980941461048a5780635503a0e8146104be57600080fd5b806316ba10e01161024557806316ba10e01461035757806316c38b3c1461037757806318160ddd1461039757806323b872dd146103b55780633ccfd60b146103d557806342842e0e146103dd57600080fd5b806301ffc9a71461028257806306fdde03146102b7578063081812fc146102d9578063095ea7b31461031157806313faede614610333575b600080fd5b34801561028e57600080fd5b506102a261029d36600461217b565b610849565b60405190151581526020015b60405180910390f35b3480156102c357600080fd5b506102cc61089b565b6040516102ae91906121f0565b3480156102e557600080fd5b506102f96102f4366004612203565b61092d565b6040516001600160a01b0390911681526020016102ae565b34801561031d57600080fd5b5061033161032c366004612238565b610971565b005b34801561033f57600080fd5b5061034960105481565b6040519081526020016102ae565b34801561036357600080fd5b506103316103723660046122ed565b6109ff565b34801561038357600080fd5b50610331610392366004612345565b610a49565b3480156103a357600080fd5b50610349600154600054036000190190565b3480156103c157600080fd5b506103316103d0366004612360565b610a86565b610331610a91565b3480156103e957600080fd5b506103316103f8366004612360565b610b63565b34801561040957600080fd5b5061041d61041836600461239c565b610b7e565b6040516102ae91906123b7565b34801561043657600080fd5b50610331610445366004612203565b610cbe565b34801561045657600080fd5b506103316104653660046122ed565b610ced565b34801561047657600080fd5b506014546102a29062010000900460ff1681565b34801561049657600080fd5b506103497f000000000000000000000000000000000000000000000000000000000000000081565b3480156104ca57600080fd5b506102cc610d2a565b3480156104df57600080fd5b506014546102a29060ff1681565b3480156104f957600080fd5b506102cc610db8565b34801561050e57600080fd5b506102f961051d366004612203565b610dc5565b34801561052e57600080fd5b506014546102a290610100900460ff1681565b34801561054d57600080fd5b5061034961055c36600461239c565b610dd7565b34801561056d57600080fd5b50610331610e25565b34801561058257600080fd5b506103316105913660046123fb565b610e5b565b3480156105a257600080fd5b506103316105b136600461239c565b610e90565b3480156105c257600080fd5b506103316105d13660046122ed565b610ee9565b3480156105e257600080fd5b506008546001600160a01b03166102f9565b34801561060057600080fd5b5061034960125481565b34801561061657600080fd5b506102cc610f26565b61033161062d366004612203565b610f35565b34801561063e57600080fd5b5061033161064d36600461241d565b611052565b34801561065e57600080fd5b506102cc6110e8565b34801561067357600080fd5b50610331610682366004612203565b6110f5565b34801561069357600080fd5b506103316106a2366004612345565b611124565b3480156106b357600080fd5b506103316106c2366004612450565b611168565b3480156106d357600080fd5b506102cc6106e2366004612203565b6111b9565b3480156106f357600080fd5b50610349600b5481565b61033161070b3660046124cb565b611329565b34801561071c57600080fd5b5061034960115481565b34801561073257600080fd5b506102a261074136600461239c565b600c6020526000908152604090205460ff1681565b34801561076257600080fd5b50610331610771366004612345565b61170f565b34801561078257600080fd5b50610349600a5481565b34801561079857600080fd5b506102a26107a7366004612549565b6001600160a01b03918216600090815260076020908152604080832093909416825291909152205460ff1690565b3480156107e157600080fd5b506103497f000000000000000000000000000000000000000000000000000000000000000081565b34801561081557600080fd5b50610331610824366004612573565b611755565b34801561083557600080fd5b5061033161084436600461239c565b6117f5565b60006001600160e01b031982166380ac58cd60e01b148061087a57506001600160e01b03198216635b5e139f60e01b145b8061089557506301ffc9a760e01b6001600160e01b03198316145b92915050565b6060600280546108aa90612596565b80601f01602080910402602001604051908101604052809291908181526020018280546108d690612596565b80156109235780601f106108f857610100808354040283529160200191610923565b820191906000526020600020905b81548152906001019060200180831161090657829003601f168201915b5050505050905090565b60006109388261184e565b610955576040516333d1c03960e21b815260040160405180910390fd5b506000908152600660205260409020546001600160a01b031690565b600061097c82610dc5565b9050806001600160a01b0316836001600160a01b031614156109b15760405163250fdee360e21b815260040160405180910390fd5b336001600160a01b038216148015906109d157506109cf81336107a7565b155b156109ef576040516367d9dca160e11b815260040160405180910390fd5b6109fa838383611887565b505050565b6008546001600160a01b03163314610a325760405162461bcd60e51b8152600401610a29906125d1565b60405180910390fd5b8051610a4590600e9060208401906120cc565b5050565b6008546001600160a01b03163314610a735760405162461bcd60e51b8152600401610a29906125d1565b6014805460ff1916911515919091179055565b6109fa8383836118e3565b6008546001600160a01b03163314610abb5760405162461bcd60e51b8152600401610a29906125d1565b6000610acf6008546001600160a01b031690565b6001600160a01b03164760405160006040518083038185875af1925050503d8060008114610b19576040519150601f19603f3d011682016040523d82523d6000602084013e610b1e565b606091505b5050905080610b605760405162461bcd60e51b815260206004820152600e60248201526d15da5d1a19185dc811985a5b195960921b6044820152606401610a29565b50565b6109fa83838360405180602001604052806000815250611168565b60606000610b8b83610dd7565b90506000816001600160401b03811115610ba757610ba7612262565b604051908082528060200260200182016040528015610bd0578160200160208202803683370190505b50905060016000805b8482108015610be9575060005483105b15610cb357600083815260046020908152604091829020825160608101845290546001600160a01b0381168252600160a01b81046001600160401b031692820192909252600160e01b90910460ff16151591810182905290610ca05780516001600160a01b031615610c5a57805191505b876001600160a01b0316826001600160a01b03161415610ca05783858481518110610c8757610c87612606565b602090810291909101015282610c9c81612632565b9350505b83610caa81612632565b94505050610bd9565b509195945050505050565b6008546001600160a01b03163314610ce85760405162461bcd60e51b8152600401610a29906125d1565b601055565b6008546001600160a01b03163314610d175760405162461bcd60e51b8152600401610a29906125d1565b8051610a4590600f9060208401906120cc565b600e8054610d3790612596565b80601f0160208091040260200160405190810160405280929190818152602001828054610d6390612596565b8015610db05780601f10610d8557610100808354040283529160200191610db0565b820191906000526020600020905b815481529060010190602001808311610d9357829003601f168201915b505050505081565b600d8054610d3790612596565b6000610dd082611ace565b5192915050565b60006001600160a01b038216610e00576040516323d3ad8160e21b815260040160405180910390fd5b506001600160a01b03166000908152600560205260409020546001600160401b031690565b6008546001600160a01b03163314610e4f5760405162461bcd60e51b8152600401610a29906125d1565b610e596000611bf5565b565b6008546001600160a01b03163314610e855760405162461bcd60e51b8152600401610a29906125d1565b600a91909155600b55565b6008546001600160a01b03163314610eba5760405162461bcd60e51b8152600401610a29906125d1565b6001600160a01b038116610ee05760405162461bcd60e51b8152600401610a299061264d565b610b60816117f5565b6008546001600160a01b03163314610f135760405162461bcd60e51b8152600401610a29906125d1565b8051610a4590600d9060208401906120cc565b6060600380546108aa90612596565b80600081118015610f4857506012548111155b610f645760405162461bcd60e51b8152600401610a2990612693565b60115481610f79600154600054036000190190565b610f8391906126c1565b1115610fa15760405162461bcd60e51b8152600401610a29906126d9565b8180601054610fb09190612707565b341015610ff55760405162461bcd60e51b8152602060048201526013602482015272496e73756666696369656e742066756e64732160681b6044820152606401610a29565b60145460ff16156110485760405162461bcd60e51b815260206004820152601760248201527f54686520636f6e747261637420697320706175736564210000000000000000006044820152606401610a29565b6109fa3384611c47565b6001600160a01b03821633141561107c5760405163b06307db60e01b815260040160405180910390fd5b3360008181526007602090815260408083206001600160a01b03871680855290835292819020805460ff191686151590811790915590519081529192917f17307eab39ab6107e8899845ad3d59bd9653f200f220920489ca2b5937696c31910160405180910390a35050565b600f8054610d3790612596565b6008546001600160a01b0316331461111f5760405162461bcd60e51b8152600401610a29906125d1565b601255565b6008546001600160a01b0316331461114e5760405162461bcd60e51b8152600401610a29906125d1565b601480549115156101000261ff0019909216919091179055565b6111738484846118e3565b6001600160a01b0383163b15158015611195575061119384848484611c61565b155b156111b3576040516368d2bf6b60e11b815260040160405180910390fd5b50505050565b60606111c48261184e565b6112285760405162461bcd60e51b815260206004820152602f60248201527f4552433732314d657461646174613a2055524920717565727920666f72206e6f60448201526e3732bc34b9ba32b73a103a37b5b2b760891b6064820152608401610a29565b60145462010000900460ff166112ca57600f805461124590612596565b80601f016020809104026020016040519081016040528092919081815260200182805461127190612596565b80156112be5780601f10611293576101008083540402835291602001916112be565b820191906000526020600020905b8154815290600101906020018083116112a157829003601f168201915b50505050509050919050565b60006112d4611d59565b905060008151116112f45760405180602001604052806000815250611322565b806112fe84611d68565b600e60405160200161131293929190612726565b6040516020818303038152906040525b9392505050565b8260008111801561133c57506012548111155b6113585760405162461bcd60e51b8152600401610a2990612693565b6011548161136d600154600054036000190190565b61137791906126c1565b11156113955760405162461bcd60e51b8152600401610a29906126d9565b83806010546113a49190612707565b3410156113e95760405162461bcd60e51b8152602060048201526013602482015272496e73756666696369656e742066756e64732160681b6044820152606401610a29565b7f0000000000000000000000000000000000000000000000000000000000000000421061141f5761141a3386611c47565b611708565b7f000000000000000000000000000000000000000000000000000000000000000042106115aa57601454610100900460ff1661146d5760405162461bcd60e51b8152600401610a29906127ea565b336000908152600c602052604090205460ff16156114c85760405162461bcd60e51b81526020600482015260186024820152774164647265737320616c726561647920636c61696d65642160401b6044820152606401610a29565b6040516bffffffffffffffffffffffff193360601b16602082015260009060340160405160208183030381529060405280519060200120905061154285858080602002602001604051908101604052809392919081815260200183836020028082843760009201919091525050600b549150849050611e65565b61157f5760405162461bcd60e51b815260206004820152600e60248201526d496e76616c69642070726f6f662160901b6044820152606401610a29565b336000818152600c60205260409020805460ff191660011790556115a4905b87611c47565b50611708565b601454610100900460ff166115d15760405162461bcd60e51b8152600401610a29906127ea565b336000908152600c602052604090205460ff161561162c5760405162461bcd60e51b81526020600482015260186024820152774164647265737320616c726561647920636c61696d65642160401b6044820152606401610a29565b6040516bffffffffffffffffffffffff193360601b1660208201526000906034016040516020818303038152906040528051906020012090506116a685858080602002602001604051908101604052809392919081815260200183836020028082843760009201919091525050600a549150849050611e65565b6116e35760405162461bcd60e51b815260206004820152600e60248201526d496e76616c69642070726f6f662160901b6044820152606401610a29565b336000818152600c60205260409020805460ff191660011790556117069061159e565b505b5050505050565b6008546001600160a01b031633146117395760405162461bcd60e51b8152600401610a29906125d1565b60148054911515620100000262ff000019909216919091179055565b8160008111801561176857506012548111155b6117845760405162461bcd60e51b8152600401610a2990612693565b60115481611799600154600054036000190190565b6117a391906126c1565b11156117c15760405162461bcd60e51b8152600401610a29906126d9565b6008546001600160a01b031633146117eb5760405162461bcd60e51b8152600401610a29906125d1565b6109fa8284611c47565b6008546001600160a01b0316331461181f5760405162461bcd60e51b8152600401610a29906125d1565b6001600160a01b0381166118455760405162461bcd60e51b8152600401610a299061264d565b610b6081611bf5565b600081600111158015611862575060005482105b8015610895575050600090815260046020526040902054600160e01b900460ff161590565b60008281526006602052604080822080546001600160a01b0319166001600160a01b0387811691821790925591518593918516917f8c5be1e5ebec7d5bd14f71427d1e84f3dd0314c0f7b2291e5b200ac8c7c3b92591a4505050565b60006118ee82611ace565b9050836001600160a01b031681600001516001600160a01b0316146119255760405162a1148160e81b815260040160405180910390fd5b6000336001600160a01b0386161480611943575061194385336107a7565b8061195e5750336119538461092d565b6001600160a01b0316145b90508061197e57604051632ce44b5f60e11b815260040160405180910390fd5b6001600160a01b0384166119a557604051633a954ecd60e21b815260040160405180910390fd5b6119b160008487611887565b6001600160a01b038581166000908152600560209081526040808320805467ffffffffffffffff198082166001600160401b0392831660001901831617909255898616808652838620805493841693831660019081018416949094179055898652600490945282852080546001600160e01b031916909417600160a01b42909216919091021783558701808452922080549193909116611a85576000548214611a8557805460208601516001600160401b0316600160a01b026001600160e01b03199091166001600160a01b038a16171781555b50505082846001600160a01b0316866001600160a01b03167fddf252ad1be2c89b69c2b068fc378daa952ba7f163c4a11628f55a4df523b3ef60405160405180910390a4611708565b60408051606081018252600080825260208201819052918101919091528180600111158015611afe575060005481105b15611bdc57600081815260046020908152604091829020825160608101845290546001600160a01b0381168252600160a01b81046001600160401b031692820192909252600160e01b90910460ff16151591810182905290611bda5780516001600160a01b031615611b71579392505050565b5060001901600081815260046020908152604091829020825160608101845290546001600160a01b038116808352600160a01b82046001600160401b031693830193909352600160e01b900460ff1615159281019290925215611bd5579392505050565b611b71565b505b604051636f96cda160e11b815260040160405180910390fd5b600880546001600160a01b038381166001600160a01b0319831681179093556040519116919082907f8be0079c531659141344cd1fd0a4f28419497f9722a3daafe3b4186f6b6457e090600090a35050565b610a45828260405180602001604052806000815250611e7b565b604051630a85bd0160e11b81526000906001600160a01b0385169063150b7a0290611c9690339089908890889060040161282c565b602060405180830381600087803b158015611cb057600080fd5b505af1925050508015611ce0575060408051601f3d908101601f19168201909252611cdd91810190612869565b60015b611d3b573d808015611d0e576040519150601f19603f3d011682016040523d82523d6000602084013e611d13565b606091505b508051611d33576040516368d2bf6b60e11b815260040160405180910390fd5b805181602001fd5b6001600160e01b031916630a85bd0160e11b1490505b949350505050565b6060600d80546108aa90612596565b606081611d8c5750506040805180820190915260018152600360fc1b602082015290565b8160005b8115611db65780611da081612632565b9150611daf9050600a8361289c565b9150611d90565b6000816001600160401b03811115611dd057611dd0612262565b6040519080825280601f01601f191660200182016040528015611dfa576020820181803683370190505b5090505b8415611d5157611e0f6001836128b0565b9150611e1c600a866128c7565b611e279060306126c1565b60f81b818381518110611e3c57611e3c612606565b60200101906001600160f81b031916908160001a905350611e5e600a8661289c565b9450611dfe565b600082611e728584611e88565b14949350505050565b6109fa8383836001611efc565b600081815b8451811015611ef4576000858281518110611eaa57611eaa612606565b60200260200101519050808311611ed05760008381526020829052604090209250611ee1565b600081815260208490526040902092505b5080611eec81612632565b915050611e8d565b509392505050565b6000546001600160a01b038516611f2557604051622e076360e81b815260040160405180910390fd5b83611f435760405163b562e8dd60e01b815260040160405180910390fd5b6001600160a01b038516600081815260056020908152604080832080546fffffffffffffffffffffffffffffffff1981166001600160401b038083168c0181169182176801000000000000000067ffffffffffffffff1990941690921783900481168c01811690920217909155858452600490925290912080546001600160e01b031916909217600160a01b429092169190910217905580808501838015611ff457506001600160a01b0387163b15155b1561207d575b60405182906001600160a01b038916906000907fddf252ad1be2c89b69c2b068fc378daa952ba7f163c4a11628f55a4df523b3ef908290a46120456000888480600101955088611c61565b612062576040516368d2bf6b60e11b815260040160405180910390fd5b80821415611ffa57826000541461207857600080fd5b6120c3565b5b6040516001830192906001600160a01b038916906000907fddf252ad1be2c89b69c2b068fc378daa952ba7f163c4a11628f55a4df523b3ef908290a48082141561207e575b50600055611708565b8280546120d890612596565b90600052602060002090601f0160209004810192826120fa5760008555612140565b82601f1061211357805160ff1916838001178555612140565b82800160010185558215612140579182015b82811115612140578251825591602001919060010190612125565b5061214c929150612150565b5090565b5b8082111561214c5760008155600101612151565b6001600160e01b031981168114610b6057600080fd5b60006020828403121561218d57600080fd5b813561132281612165565b60005b838110156121b357818101518382015260200161219b565b838111156111b35750506000910152565b600081518084526121dc816020860160208601612198565b601f01601f19169290920160200192915050565b60208152600061132260208301846121c4565b60006020828403121561221557600080fd5b5035919050565b80356001600160a01b038116811461223357600080fd5b919050565b6000806040838503121561224b57600080fd5b6122548361221c565b946020939093013593505050565b634e487b7160e01b600052604160045260246000fd5b60006001600160401b038084111561229257612292612262565b604051601f8501601f19908116603f011681019082821181831017156122ba576122ba612262565b816040528093508581528686860111156122d357600080fd5b858560208301376000602087830101525050509392505050565b6000602082840312156122ff57600080fd5b81356001600160401b0381111561231557600080fd5b8201601f8101841361232657600080fd5b611d5184823560208401612278565b8035801515811461223357600080fd5b60006020828403121561235757600080fd5b61132282612335565b60008060006060848603121561237557600080fd5b61237e8461221c565b925061238c6020850161221c565b9150604084013590509250925092565b6000602082840312156123ae57600080fd5b6113228261221c565b6020808252825182820181905260009190848201906040850190845b818110156123ef578351835292840192918401916001016123d3565b50909695505050505050565b6000806040838503121561240e57600080fd5b50508035926020909101359150565b6000806040838503121561243057600080fd5b6124398361221c565b915061244760208401612335565b90509250929050565b6000806000806080858703121561246657600080fd5b61246f8561221c565b935061247d6020860161221c565b92506040850135915060608501356001600160401b0381111561249f57600080fd5b8501601f810187136124b057600080fd5b6124bf87823560208401612278565b91505092959194509250565b6000806000604084860312156124e057600080fd5b8335925060208401356001600160401b03808211156124fe57600080fd5b818601915086601f83011261251257600080fd5b81358181111561252157600080fd5b8760208260051b850101111561253657600080fd5b6020830194508093505050509250925092565b6000806040838503121561255c57600080fd5b6125658361221c565b91506124476020840161221c565b6000806040838503121561258657600080fd5b823591506124476020840161221c565b600181811c908216806125aa57607f821691505b602082108114156125cb57634e487b7160e01b600052602260045260246000fd5b50919050565b6020808252818101527f4f776e61626c653a2063616c6c6572206973206e6f7420746865206f776e6572604082015260600190565b634e487b7160e01b600052603260045260246000fd5b634e487b7160e01b600052601160045260246000fd5b60006000198214156126465761264661261c565b5060010190565b60208082526026908201527f4f776e61626c653a206e6577206f776e657220697320746865207a65726f206160408201526564647265737360d01b606082015260800190565b602080825260149082015273496e76616c6964206d696e7420616d6f756e742160601b604082015260600190565b600082198211156126d4576126d461261c565b500190565b6020808252601490820152734d617820737570706c792065786365656465642160601b604082015260600190565b60008160001904831182151516156127215761272161261c565b500290565b6000845160206127398285838a01612198565b85519184019161274c8184848a01612198565b8554920191600090600181811c908083168061276957607f831692505b85831081141561278757634e487b7160e01b85526022600452602485fd5b80801561279b57600181146127ac576127d9565b60ff198516885283880195506127d9565b60008b81526020902060005b858110156127d15781548a8201529084019088016127b8565b505083880195505b50939b9a5050505050505050505050565b60208082526022908201527f5468652077686974656c6973742073616c65206973206e6f7420656e61626c65604082015261642160f01b606082015260800190565b6001600160a01b038581168252841660208201526040810183905260806060820181905260009061285f908301846121c4565b9695505050505050565b60006020828403121561287b57600080fd5b815161132281612165565b634e487b7160e01b600052601260045260246000fd5b6000826128ab576128ab612886565b500490565b6000828210156128c2576128c261261c565b500390565b6000826128d6576128d6612886565b50069056fea264697066735822122080e904e2a810c05550df16768c6068df2fdf1c2b877e6bb5e13078c53a957a3764736f6c634300080900334f776e61626c653a2063616c6c6572206973206e6f7420746865206f776e6572",
  "linkReferences": {},
  "deployedLinkReferences": {}
}